:020000040000FA
:020000000528D1
:080008004E2883160313860144
:1000100006309F00033085008312031311309000D7
:10002000831203130C10831603130C14831203138F
:10003000C0308B00831203138601A301A401A50124
:10004000B101B201A9016430B000B0308E003C3083
:100050008F000530B30005189728851891282B28A4
:10006000A200220E36202208362008000F39860012
:100070008312031306168616CA2086120800A200F1
:10008000220E45202208452008000F3986008312E1
:10009000031306128616CA20861208008312031361
:1000A0000C10B30B09000530B3002908B100B10AE8
:1000B0003108A900A401A301A5016320B0308E007E
:1000C0003C308F0009006430B102031C6928A50A86
:1000D00063286430B1070A30B102031C7128A30AF7
:1000E0006B280A30B1070130B102031C7928A40A39
:1000F000732802303F200C303F2028303F208E20D4
:1001000030302507302030302307302030302407AE
:1001100030205E280900C0303F20080080303F209A
:1001200008003008B200B2033208B0009D28300841
:10013000B200B20A3208B0009D28A701A601A801AA
:100140006430B202031CA628A80AA0286430B207B3
:100150000A30B202031CAE28A60AA8280A30B20749
:100160000130B202031CB628A70AB028CA208312A5
:1001700003138B1384303F208B203030280730202E
:100180003030260730203030270730208312031309
:100190008B172B283C30A0008230A100A10BCE2869
:0601A000A00BCC280800B2
:02400E00313F40
:00000001FF
